{
  "contractName": "RareGems",
  "abi": [
    {
      "inputs": [
        {
          "internalType": "address",
          "name": "Token",
          "type": "address"
        }
      ],
      "stateMutability": "nonpayable",
      "type": "constructor"
    },
    {
      "anonymous": false,
      "inputs": [
        {
          "indexed": false,
          "internalType": "uint256",
          "name": "id",
          "type": "uint256"
        },
        {
          "indexed": false,
          "internalType": "uint256",
          "name": "price",
          "type": "uint256"
        },
        {
          "indexed": false,
          "internalType": "string",
          "name": "name",
          "type": "string"
        },
        {
          "indexed": false,
          "internalType": "string",
          "name": "description",
          "type": "string"
        },
        {
          "indexed": false,
          "internalType": "address payable",
          "name": "owner",
          "type": "address"
        },
        {
          "indexed": false,
          "internalType": "bool",
          "name": "thirdPartyCheck",
          "type": "bool"
        }
      ],
      "name": "productCreated",
      "type": "event"
    },
    {
      "anonymous": false,
      "inputs": [
        {
          "indexed": false,
          "internalType": "uint256",
          "name": "id",
          "type": "uint256"
        },
        {
          "indexed": false,
          "internalType": "uint256",
          "name": "price",
          "type": "uint256"
        },
        {
          "indexed": false,
          "internalType": "string",
          "name": "name",
          "type": "string"
        },
        {
          "indexed": false,
          "internalType": "string",
          "name": "description",
          "type": "string"
        },
        {
          "indexed": false,
          "internalType": "address payable",
          "name": "owner",
          "type": "address"
        },
        {
          "indexed": false,
          "internalType": "bool",
          "name": "thirdPartyCheck",
          "type": "bool"
        }
      ],
      "name": "productPurchased",
      "type": "event"
    },
    {
      "inputs": [
        {
          "internalType": "uint256",
          "name": "",
          "type": "uint256"
        }
      ],
      "name": "products",
      "outputs": [
        {
          "internalType": "uint256",
          "name": "id",
          "type": "uint256"
        },
        {
          "internalType": "uint256",
          "name": "price",
          "type": "uint256"
        },
        {
          "internalType": "string",
          "name": "name",
          "type": "string"
        },
        {
          "internalType": "string",
          "name": "description",
          "type": "string"
        },
        {
          "internalType": "address payable",
          "name": "owner",
          "type": "address"
        },
        {
          "internalType": "bool",
          "name": "thirdPartyCheck",
          "type": "bool"
        }
      ],
      "stateMutability": "view",
      "type": "function",
      "constant": true
    },
    {
      "inputs": [
        {
          "internalType": "address",
          "name": "",
          "type": "address"
        }
      ],
      "name": "user",
      "outputs": [
        {
          "internalType": "uint256",
          "name": "",
          "type": "uint256"
        }
      ],
      "stateMutability": "view",
      "type": "function",
      "constant": true
    },
    {
      "inputs": [
        {
          "internalType": "address",
          "name": "customer",
          "type": "address"
        },
        {
          "internalType": "uint256",
          "name": "amount",
          "type": "uint256"
        }
      ],
      "name": "sendToUser",
      "outputs": [
        {
          "internalType": "bool",
          "name": "",
          "type": "bool"
        }
      ],
      "stateMutability": "nonpayable",
      "type": "function"
    },
    {
      "inputs": [],
      "name": "viewBalance",
      "outputs": [
        {
          "internalType": "uint256",
          "name": "",
          "type": "uint256"
        }
      ],
      "stateMutability": "view",
      "type": "function",
      "constant": true
    },
    {
      "inputs": [
        {
          "internalType": "uint256",
          "name": "id",
          "type": "uint256"
        }
      ],
      "name": "viewProducts",
      "outputs": [
        {
          "internalType": "uint256",
          "name": "",
          "type": "uint256"
        },
        {
          "internalType": "uint256",
          "name": "",
          "type": "uint256"
        },
        {
          "internalType": "string",
          "name": "",
          "type": "string"
        },
        {
          "internalType": "string",
          "name": "",
          "type": "string"
        },
        {
          "internalType": "address",
          "name": "",
          "type": "address"
        },
        {
          "internalType": "bool",
          "name": "",
          "type": "bool"
        }
      ],
      "stateMutability": "view",
      "type": "function",
      "constant": true
    },
    {
      "inputs": [
        {
          "internalType": "bool",
          "name": "isPrimeUser",
          "type": "bool"
        }
      ],
      "name": "register",
      "outputs": [],
      "stateMutability": "payable",
      "type": "function",
      "payable": true
    },
    {
      "inputs": [
        {
          "internalType": "address payable",
          "name": "member_unreg",
          "type": "address"
        }
      ],
      "name": "unregister",
      "outputs": [],
      "stateMutability": "nonpayable",
      "type": "function"
    },
    {
      "inputs": [
        {
          "internalType": "string",
          "name": "_name",
          "type": "string"
        },
        {
          "internalType": "string",
          "name": "_description",
          "type": "string"
        },
        {
          "internalType": "uint256",
          "name": "_price",
          "type": "uint256"
        }
      ],
      "name": "createPrimeProduct",
      "outputs": [],
      "stateMutability": "nonpayable",
      "type": "function"
    },
    {
      "inputs": [
        {
          "internalType": "string",
          "name": "_name",
          "type": "string"
        },
        {
          "internalType": "string",
          "name": "_description",
          "type": "string"
        },
        {
          "internalType": "uint256",
          "name": "_price",
          "type": "uint256"
        }
      ],
      "name": "createProduct",
      "outputs": [],
      "stateMutability": "nonpayable",
      "type": "function"
    },
    {
      "inputs": [
        {
          "internalType": "uint256",
          "name": "_id",
          "type": "uint256"
        }
      ],
      "name": "purchasePrimeProduct",
      "outputs": [],
      "stateMutability": "payable",
      "type": "function",
      "payable": true
    },
    {
      "inputs": [
        {
          "internalType": "uint256",
          "name": "_id",
          "type": "uint256"
        }
      ],
      "name": "purchaseProduct",
      "outputs": [],
      "stateMutability": "payable",
      "type": "function",
      "payable": true
    },
    {
      "inputs": [
        {
          "internalType": "uint256",
          "name": "_id",
          "type": "uint256"
        }
      ],
      "name": "deleteProduct",
      "outputs": [],
      "stateMutability": "nonpayable",
      "type": "function"
    }
  ],
  "bytecode": "0x608060405260006003553480156200001657600080fd5b506040516200271b3803806200271b83398181016040528101906200003c9190620001d6565b80600160006101000a81548173ffffffffffffffffffffffffffffffffffffffff021916908373ffffffffffffffffffffffffffffffffffffffff16021790555033600260006101000a81548173ffffffffffffffffffffffffffffffffffffffff021916908373ffffffffffffffffffffffffffffffffffffffff1602179055506001600560003373ffffffffffffffffffffffffffffffffffffffff1673ffffffffffffffffffffffffffffffffffffffff16815260200190815260200160002081905550600160009054906101000a900473ffffffffffffffffffffffffffffffffffffffff166000806101000a81548173ffffffffffffffffffffffffffffffffffffffff021916908373ffffffffffffffffffffffffffffffffffffffff1602179055505062000208565b600080fd5b600073ffffffffffffffffffffffffffffffffffffffff82169050919050565b60006200019e8262000171565b9050919050565b620001b08162000191565b8114620001bc57600080fd5b50565b600081519050620001d081620001a5565b92915050565b600060208284031215620001ef57620001ee6200016c565b5b6000620001ff84828501620001bf565b91505092915050565b61250380620002186000396000f3fe6080604052600436106100a75760003560e01c806381e7e20e1161006457806381e7e20e146101dd578063a14222091461021a578063bb6c68f114610243578063be1231451461025f578063e86ab5c21461027b578063ed90c7b7146102a4576100a7565b80631392c6c5146100ac5780632ec2c246146100ee57806338c182ee1461011757806338e76a03146101545780633ff1e05b146101705780637acc0b201461019b575b600080fd5b3480156100b857600080fd5b506100d360048036038101906100ce9190611902565b6102cd565b6040516100e596959493929190611a33565b60405180910390f35b3480156100fa57600080fd5b5061011560048036038101906101109190611ae0565b610584565b005b34801561012357600080fd5b5061013e60048036038101906101399190611b39565b61065c565b60405161014b9190611b79565b60405180910390f35b61016e60048036038101906101699190611902565b610705565b005b34801561017c57600080fd5b50610185610a43565b6040516101929190611b94565b60405180910390f35b3480156101a757600080fd5b506101c260048036038101906101bd9190611902565b610ae5565b6040516101d496959493929190611bbe565b60405180910390f35b3480156101e957600080fd5b5061020460048036038101906101ff9190611c2d565b610c5e565b6040516102119190611b94565b60405180910390f35b34801561022657600080fd5b50610241600480360381019061023c9190611d8f565b610c76565b005b61025d60048036038101906102589190611902565b610f02565b005b61027960048036038101906102749190611e46565b6113d8565b005b34801561028757600080fd5b506102a2600480360381019061029d9190611d8f565b611477565b005b3480156102b057600080fd5b506102cb60048036038101906102c69190611902565b6116ab565b005b6000806060806000806001600560003373ffffffffffffffffffffffffffffffffffffffff1673ffffffffffffffffffffffffffffffffffffffff16815260200190815260200160002054148061036357506002600560003373ffffffffffffffffffffffffffffffffffffffff1673ffffffffffffffffffffffffffffffffffffffff16815260200190815260200160002054145b6103a2576040517f08c379a000000000000000000000000000000000000000000000000000000000815260040161039990611ebf565b60405180910390fd5b60046000888152602001908152602001600020600001546004600089815260200190815260200160002060010154600460008a8152602001908152602001600020600201600460008b8152602001908152602001600020600301600460008c815260200190815260200160002060040160009054906101000a900473ffffffffffffffffffffffffffffffffffffffff16600460008d815260200190815260200160002060040160149054906101000a900460ff1683805461046390611f0e565b80601f016020809104026020016040519081016040528092919081815260200182805461048f90611f0e565b80156104dc5780601f106104b1576101008083540402835291602001916104dc565b820191906000526020600020905b8154815290600101906020018083116104bf57829003601f168201915b505050505093508280546104ef90611f0e565b80601f016020809104026020016040519081016040528092919081815260200182805461051b90611f0e565b80156105685780601f1061053d57610100808354040283529160200191610568565b820191906000526020600020905b81548152906001019060200180831161054b57829003601f168201915b5050505050925095509550955095509550955091939550919395565b600260009054906101000a900473ffffffffffffffffffffffffffffffffffffffff1673ffffffffffffffffffffffffffffffffffffffff163373ffffffffffffffffffffffffffffffffffffffff1614610614576040517f08c379a000000000000000000000000000000000000000000000000000000000815260040161060b90611fb2565b60405180910390fd5b6000600560008373ffffffffffffffffffffffffffffffffffffffff1673ffffffffffffffffffffffffffffffffffffffff1681526020019081526020016000208190555050565b60008060009054906101000a900473ffffffffffffffffffffffffffffffffffffffff1673ffffffffffffffffffffffffffffffffffffffff1663a9059cbb84846040518363ffffffff1660e01b81526004016106ba929190611fd2565b6020604051808303816000875af11580156106d9573d6000803e3d6000fd5b505050506040513d601f19601f820116820180604052508101906106fd9190612010565b905092915050565b6001600560003373ffffffffffffffffffffffffffffffffffffffff1673ffffffffffffffffffffffffffffffffffffffff16815260200190815260200160002054148061079257506002600560003373ffffffffffffffffffffffffffffffffffffffff1673ffffffffffffffffffffffffffffffffffffffff16815260200190815260200160002054145b6107d1576040517f08c379a00000000000000000000000000000000000000000000000000000000081526004016107c890611ebf565b60405180910390fd5b60006004600083815260200190815260200160002060040160009054906101000a900473ffffffffffffffffffffffffffffffffffffffff1690503373ffffffffffffffffffffffffffffffffffffffff168173ffffffffffffffffffffffffffffffffffffffff16141561084557600080fd5b60008054906101000a900473ffffffffffffffffffffffffffffffffffffffff1673ffffffffffffffffffffffffffffffffffffffff166323b872dd336004600086815260200190815260200160002060040160009054906101000a900473ffffffffffffffffffffffffffffffffffffffff1660046000878152602001908152602001600020600101546040518463ffffffff1660e01b81526004016108ee9392919061209c565b6020604051808303816000875af115801561090d573d6000803e3d6000fd5b505050506040513d601f19601f820116820180604052508101906109319190612010565b50336004600084815260200190815260200160002060040160006101000a81548173ffffffffffffffffffffffffffffffffffffffff021916908373ffffffffffffffffffffffffffffffffffffffff1602179055507f9675b643591290c92111645d2c17b2247c15729da768bae895688e91599e081882600460008581526020019081526020016000206001015460046000868152602001908152602001600020600201600460008781526020019081526020016000206003016004600088815260200190815260200160002060040160009054906101000a900473ffffffffffffffffffffffffffffffffffffffff166000604051610a3796959493929190612168565b60405180910390a15050565b60008060009054906101000a900473ffffffffffffffffffffffffffffffffffffffff1673ffffffffffffffffffffffffffffffffffffffff166370a08231336040518263ffffffff1660e01b8152600401610a9f91906121d7565b602060405180830381865afa158015610abc573d6000803e3d6000fd5b505050506040513d601f19601f82011682018060405250810190610ae09190612207565b905090565b6004602052806000526040600020600091509050806000015490806001015490806002018054610b1490611f0e565b80601f0160208091040260200160405190810160405280929190818152602001828054610b4090611f0e565b8015610b8d5780601f10610b6257610100808354040283529160200191610b8d565b820191906000526020600020905b815481529060010190602001808311610b7057829003601f168201915b505050505090806003018054610ba290611f0e565b80601f0160208091040260200160405190810160405280929190818152602001828054610bce90611f0e565b8015610c1b5780601f10610bf057610100808354040283529160200191610c1b565b820191906000526020600020905b815481529060010190602001808311610bfe57829003601f168201915b5050505050908060040160009054906101000a900473ffffffffffffffffffffffffffffffffffffffff16908060040160149054906101000a900460ff16905086565b60056020528060005260406000206000915090505481565b6001600560003373ffffffffffffffffffffffffffffffffffffffff1673ffffffffffffffffffffffffffffffffffffffff168152602001908152602001600020541480610d0357506002600560003373ffffffffffffffffffffffffffffffffffffffff1673ffffffffffffffffffffffffffffffffffffffff16815260200190815260200160002054145b610d42576040517f08c379a0000000000000000000000000000000000000000000000000000000008152600401610d3990611ebf565b60405180910390fd5b6000835111610d5057600080fd5b6000825111610d5e57600080fd5b60008111610d6b57600080fd5b600a811115610d7957600080fd5b60036000815480929190610d8c90612263565b91905055506040518060c0016040528060035481526020018281526020018481526020018381526020013373ffffffffffffffffffffffffffffffffffffffff1681526020016000151581525060046000600354815260200190815260200160002060008201518160000155602082015181600101556040820151816002019080519060200190610e1e9291906117d5565b506060820151816003019080519060200190610e3b9291906117d5565b5060808201518160040160006101000a81548173ffffffffffffffffffffffffffffffffffffffff021916908373ffffffffffffffffffffffffffffffffffffffff16021790555060a08201518160040160146101000a81548160ff0219169083151502179055509050507fc2a6db3383c5e1d32127d85c297b2b05e480899a0d39a89fbfde7938c4d4dc9c600354670de0b6b3a764000083610ede91906122ac565b8585336000604051610ef596959493929190611bbe565b60405180910390a1505050565b6002600560003373ffffffffffffffffffffffffffffffffffffffff1673ffffffffffffffffffffffffffffffffffffffff1681526020019081526020016000205414610f84576040517f08c379a0000000000000000000000000000000000000000000000000000000008152600401610f7b90612352565b60405180910390fd5b6000600460008381526020019081526020016000206040518060c00160405290816000820154815260200160018201548152602001600282018054610fc890611f0e565b80601f0160208091040260200160405190810160405280929190818152602001828054610ff490611f0e565b80156110415780601f1061101657610100808354040283529160200191611041565b820191906000526020600020905b81548152906001019060200180831161102457829003601f168201915b5050505050815260200160038201805461105a90611f0e565b80601f016020809104026020016040519081016040528092919081815260200182805461108690611f0e565b80156110d35780601f106110a8576101008083540402835291602001916110d3565b820191906000526020600020905b8154815290600101906020018083116110b657829003601f168201915b505050505081526020016004820160009054906101000a900473ffffffffffffffffffffffffffffffffffffffff1673ffffffffffffffffffffffffffffffffffffffff1673ffffffffffffffffffffffffffffffffffffffff1681526020016004820160149054906101000a900460ff161515151581525050905060006004600084815260200190815260200160002060040160009054906101000a900473ffffffffffffffffffffffffffffffffffffffff169050600115158260a0015115151461119f57600080fd5b60008260000151101580156111ba5750600354826000015111155b6111c357600080fd5b816020015134101561120a576040517f08c379a0000000000000000000000000000000000000000000000000000000008152600401611201906123e4565b60405180910390fd5b3373ffffffffffffffffffffffffffffffffffffffff168173ffffffffffffffffffffffffffffffffffffffff16141561124357600080fd5b60008054906101000a900473ffffffffffffffffffffffffffffffffffffffff1673ffffffffffffffffffffffffffffffffffffffff166323b872dd6004600086815260200190815260200160002060040160009054906101000a900473ffffffffffffffffffffffffffffffffffffffff163360046000888152602001908152602001600020600101546040518463ffffffff1660e01b81526004016112ec93929190612404565b6020604051808303816000875af115801561130b573d6000803e3d6000fd5b505050506040513d601f19601f8201168201806040525081019061132f9190612010565b50336004600085815260200190815260200160002060040160006101000a81548173ffffffffffffffffffffffffffffffffffffffff021916908373ffffffffffffffffffffffffffffffffffffffff1602179055507f9675b643591290c92111645d2c17b2247c15729da768bae895688e91599e0818838360200151846040015185606001513360016040516113cb96959493929190611bbe565b60405180910390a1505050565b6000339050811561142d576002600560008373ffffffffffffffffffffffffffffffffffffffff1673ffffffffffffffffffffffffffffffffffffffff16815260200190815260200160002081905550611473565b6001600560008373ffffffffffffffffffffffffffffffffffffffff1673ffffffffffffffffffffffffffffffffffffffff168152602001908152602001600020819055505b5050565b6002600560003373ffffffffffffffffffffffffffffffffffffffff1673ffffffffffffffffffffffffffffffffffffffff16815260200190815260200160002054146114f9576040517f08c379a00000000000000000000000000000000000000000000000000000000081526004016114f090612352565b60405180910390fd5b600083511161150757600080fd5b600082511161151557600080fd5b600a811161152257600080fd5b6003600081548092919061153590612263565b91905055506040518060c0016040528060035481526020018281526020018481526020018381526020013373ffffffffffffffffffffffffffffffffffffffff16815260200160011515815250600460006003548152602001908152602001600020600082015181600001556020820151816001015560408201518160020190805190602001906115c79291906117d5565b5060608201518160030190805190602001906115e49291906117d5565b5060808201518160040160006101000a81548173ffffffffffffffffffffffffffffffffffffffff021916908373ffffffffffffffffffffffffffffffffffffffff16021790555060a08201518160040160146101000a81548160ff0219169083151502179055509050507fc2a6db3383c5e1d32127d85c297b2b05e480899a0d39a89fbfde7938c4d4dc9c600354670de0b6b3a76400008361168791906122ac565b858533600160405161169e96959493929190611bbe565b60405180910390a1505050565b806004600082815260200190815260200160002060040160009054906101000a900473ffffffffffffffffffffffffffffffffffffffff1673ffffffffffffffffffffffffffffffffffffffff163373ffffffffffffffffffffffffffffffffffffffff1614611750576040517f08c379a0000000000000000000000000000000000000000000000000000000008152600401611747906124ad565b60405180910390fd5b600460008381526020019081526020016000206000808201600090556001820160009055600282016000611784919061185b565b600382016000611794919061185b565b6004820160006101000a81549073ffffffffffffffffffffffffffffffffffffffff02191690556004820160146101000a81549060ff021916905550505050565b8280546117e190611f0e565b90600052602060002090601f016020900481019282611803576000855561184a565b82601f1061181c57805160ff191683800117855561184a565b8280016001018555821561184a579182015b8281111561184957825182559160200191906001019061182e565b5b509050611857919061189b565b5090565b50805461186790611f0e565b6000825580601f106118795750611898565b601f016020900490600052602060002090810190611897919061189b565b5b50565b5b808211156118b457600081600090555060010161189c565b5090565b6000604051905090565b600080fd5b600080fd5b6000819050919050565b6118df816118cc565b81146118ea57600080fd5b50565b6000813590506118fc816118d6565b92915050565b600060208284031215611918576119176118c2565b5b6000611926848285016118ed565b91505092915050565b611938816118cc565b82525050565b600081519050919050565b600082825260208201905092915050565b60005b8381101561197857808201518184015260208101905061195d565b83811115611987576000848401525b50505050565b6000601f19601f8301169050919050565b60006119a98261193e565b6119b38185611949565b93506119c381856020860161195a565b6119cc8161198d565b840191505092915050565b600073ffffffffffffffffffffffffffffffffffffffff82169050919050565b6000611a02826119d7565b9050919050565b611a12816119f7565b82525050565b60008115159050919050565b611a2d81611a18565b82525050565b600060c082019050611a48600083018961192f565b611a55602083018861192f565b8181036040830152611a67818761199e565b90508181036060830152611a7b818661199e565b9050611a8a6080830185611a09565b611a9760a0830184611a24565b979650505050505050565b6000611aad826119d7565b9050919050565b611abd81611aa2565b8114611ac857600080fd5b50565b600081359050611ada81611ab4565b92915050565b600060208284031215611af657611af56118c2565b5b6000611b0484828501611acb565b91505092915050565b611b16816119f7565b8114611b2157600080fd5b50565b600081359050611b3381611b0d565b92915050565b60008060408385031215611b5057611b4f6118c2565b5b6000611b5e85828601611b24565b9250506020611b6f858286016118ed565b9150509250929050565b6000602082019050611b8e6000830184611a24565b92915050565b6000602082019050611ba9600083018461192f565b92915050565b611bb881611aa2565b82525050565b600060c082019050611bd3600083018961192f565b611be0602083018861192f565b8181036040830152611bf2818761199e565b90508181036060830152611c06818661199e565b9050611c156080830185611baf565b611c2260a0830184611a24565b979650505050505050565b600060208284031215611c4357611c426118c2565b5b6000611c5184828501611b24565b91505092915050565b600080fd5b600080fd5b7f4e487b7100000000000000000000000000000000000000000000000000000000600052604160045260246000fd5b611c9c8261198d565b810181811067ffffffffffffffff82111715611cbb57611cba611c64565b5b80604052505050565b6000611cce6118b8565b9050611cda8282611c93565b919050565b600067ffffffffffffffff821115611cfa57611cf9611c64565b5b611d038261198d565b9050602081019050919050565b82818337600083830152505050565b6000611d32611d2d84611cdf565b611cc4565b905082815260208101848484011115611d4e57611d4d611c5f565b5b611d59848285611d10565b509392505050565b600082601f830112611d7657611d75611c5a565b5b8135611d86848260208601611d1f565b91505092915050565b600080600060608486031215611da857611da76118c2565b5b600084013567ffffffffffffffff811115611dc657611dc56118c7565b5b611dd286828701611d61565b935050602084013567ffffffffffffffff811115611df357611df26118c7565b5b611dff86828701611d61565b9250506040611e10868287016118ed565b9150509250925092565b611e2381611a18565b8114611e2e57600080fd5b50565b600081359050611e4081611e1a565b92915050565b600060208284031215611e5c57611e5b6118c2565b5b6000611e6a84828501611e31565b91505092915050565b7f506c656173652072656769737465720000000000000000000000000000000000600082015250565b6000611ea9600f83611949565b9150611eb482611e73565b602082019050919050565b60006020820190508181036000830152611ed881611e9c565b9050919050565b7f4e487b7100000000000000000000000000000000000000000000000000000000600052602260045260246000fd5b60006002820490506001821680611f2657607f821691505b60208210811415611f3a57611f39611edf565b5b50919050565b7f4f6e6c79204d61726b657420506c616365204f776e65722063616e207065726660008201527f6f726d2074686973206f7065726174696f6e0000000000000000000000000000602082015250565b6000611f9c603283611949565b9150611fa782611f40565b604082019050919050565b60006020820190508181036000830152611fcb81611f8f565b9050919050565b6000604082019050611fe76000830185611a09565b611ff4602083018461192f565b9392505050565b60008151905061200a81611e1a565b92915050565b600060208284031215612026576120256118c2565b5b600061203484828501611ffb565b91505092915050565b6000819050919050565b600061206261205d612058846119d7565b61203d565b6119d7565b9050919050565b600061207482612047565b9050919050565b600061208682612069565b9050919050565b6120968161207b565b82525050565b60006060820190506120b16000830186611a09565b6120be602083018561208d565b6120cb604083018461192f565b949350505050565b60008190508160005260206000209050919050565b600081546120f581611f0e565b6120ff8186611949565b9450600182166000811461211a576001811461212c5761215f565b60ff198316865260208601935061215f565b612135856120d3565b60005b8381101561215757815481890152600182019150602081019050612138565b808801955050505b50505092915050565b600060c08201905061217d600083018961192f565b61218a602083018861192f565b818103604083015261219c81876120e8565b905081810360608301526121b081866120e8565b90506121bf6080830185611baf565b6121cc60a0830184611a24565b979650505050505050565b60006020820190506121ec6000830184611a09565b92915050565b600081519050612201816118d6565b92915050565b60006020828403121561221d5761221c6118c2565b5b600061222b848285016121f2565b91505092915050565b7f4e487b7100000000000000000000000000000000000000000000000000000000600052601160045260246000fd5b600061226e826118cc565b91507fffffffffffffffffffffffffffffffffffffffffffffffffffffffffffffffff8214156122a1576122a0612234565b5b600182019050919050565b60006122b7826118cc565b91506122c2836118cc565b9250817fffffffffffffffffffffffffffffffffffffffffffffffffffffffffffffffff04831182151516156122fb576122fa612234565b5b828202905092915050565b7f506c65617365206265636f6d652061207072696d65206d656d62657200000000600082015250565b600061233c601c83611949565b915061234782612306565b602082019050919050565b6000602082019050818103600083015261236b8161232f565b9050919050565b7f2056616c7565206973206c657373207468616e207468652070726f647563742060008201527f7072696365000000000000000000000000000000000000000000000000000000602082015250565b60006123ce602583611949565b91506123d982612372565b604082019050919050565b600060208201905081810360008301526123fd816123c1565b9050919050565b6000606082019050612419600083018661208d565b6124266020830185611a09565b612433604083018461192f565b949350505050565b7f4f6e6c79206f776e6572206f66207468652070726f647563742063616e20646560008201527f6c657465207468652070726f6475637400000000000000000000000000000000602082015250565b6000612497603083611949565b91506124a28261243b565b604082019050919050565b600060208201905081810360008301526124c68161248a565b905091905056fea2646970667358221220602b96f050b78fbe336f81238afdb700e18b61edd2444f4c3a136d2b25c8e18264736f6c634300080c0033",
  "immutableReferences": {},
  "source": "// SPDX-License-Identifier: UNLICENSED\r\npragma solidity ^0.8.0;\r\n\r\nimport './Gems.sol';\r\n\r\ncontract RareGems{\r\n    \r\n        Gems gem;\r\n        address token;\r\n        address marketPlaceOwner;\r\n        uint private productID=0;\r\n        mapping(uint=>Product) public products;\r\n        mapping (address=>uint) public user; \r\n        \r\n        //Product Structure\r\n        struct Product{\r\n            uint id;\r\n            uint price;\r\n            string name;\r\n            string description;\r\n            address payable owner;\r\n            bool thirdPartyCheck;\r\n        }\r\n        //event to be called on creation of product in the blockchain\r\n        event productCreated(\r\n            uint id,\r\n            uint price,\r\n            string name,    \r\n            string description,\r\n            address payable owner,\r\n            bool thirdPartyCheck\r\n        );\r\n        //event to be called on purchase of product in the blockchain\r\n        event productPurchased(\r\n            uint id,\r\n            uint price,\r\n            string name,\r\n            string description,\r\n            address payable owner,\r\n            bool thirdPartyCheck\r\n        );\r\n\r\n\r\n        // modifiers\r\n        modifier onlyMarketPlaceOwner{ \r\n            require(msg.sender==marketPlaceOwner,\"Only Market Place Owner can perform this operation\");\r\n            _;\r\n         }\r\n         modifier onlyUser{ \r\n            require(user[msg.sender]==1||user[msg.sender]==2,\"Please register\");\r\n            _;\r\n        }\r\n\r\n        modifier onlyOwner(uint id){\r\n            require(msg.sender == products[id].owner,\"Only owner of the product can delete the product\");\r\n            _;\r\n        }\r\n\r\n        modifier onlyPrimeMember{\r\n            require(user[msg.sender]==2,\"Please become a prime member\");\r\n            _;\r\n        }\r\n    \r\n\r\n    constructor (address Token) { \r\n    token = Token;\r\n    marketPlaceOwner=msg.sender;\r\n    user[msg.sender]=1; \r\n    gem = Gems(token);\r\n    }\r\n\r\n     function sendToUser(address customer,uint amount) public returns(bool){ \r\n     return gem.transfer(customer,amount);\r\n        \r\n   }\r\n\r\n//     function approveTranfer(address customer,uint amount) public returns(bool){ \r\n//      return gem.approve(msg.sender,customer,amount);\r\n        \r\n//    }\r\n\r\n//        function approveBal(address customer,uint amount) public returns(bool){ \r\n//      return gem.approve(customer,amount);\r\n        \r\n//    }\r\n    \r\n    function viewBalance() public view returns(uint256) {\r\n        return gem.balanceOf(msg.sender);\r\n    }\r\n\r\n    function viewProducts(uint id) public view onlyUser returns(uint,uint,string memory,string memory,address,bool){\r\n        return(products[id].id,products[id].price,products[id].name,products[id].description,products[id].owner,products[id].thirdPartyCheck);\r\n    }\r\n\r\n    function register (bool isPrimeUser) public payable {\r\n        address member =msg.sender;\r\n        if(isPrimeUser){\r\n            user[member]=2;\r\n        }\r\n        else\r\n        {\r\n            user[member]=1;\r\n        }\r\n    }\r\n        \r\n   function unregister (address payable member_unreg) onlyMarketPlaceOwner public {\r\n\r\n        user[member_unreg]=0;  \r\n\r\n    }\r\n    \r\n\r\n    function createPrimeProduct(string memory _name, string memory _description,  uint _price) onlyPrimeMember public {\r\n\r\n        require(bytes(_name).length > 0);\r\n        require(bytes(_description).length > 0);\r\n        require(_price>(10));\r\n        //Create a product\r\n        productID ++;\r\n        products[productID]= Product(productID, _price,_name,_description, payable(msg.sender),true);\r\n        \r\n        // Trigger an event\r\n        emit productCreated(productID, _price*(10**18),_name,_description, payable(msg.sender),true);\r\n        \r\n    }\r\n\r\n    //contract to create a Item and add to blockchain, if any user wants to buy can see it and buy it.\r\n    function createProduct(string memory _name, string memory _description,  uint _price) onlyUser public {\r\n        require(bytes(_name).length > 0);\r\n        require(bytes(_description).length > 0);\r\n        require(_price>0);\r\n        require(_price<=(10));\r\n        \r\n        //Create a product\r\n        productID ++;\r\n        products[productID]= Product(productID, _price,_name,_description, payable(msg.sender),false);\r\n        \r\n        // Trigger an event\r\n        emit productCreated(productID, _price*(10**18),_name,_description, payable(msg.sender),false);\r\n        \r\n    }\r\n\r\n\r\n\r\n    function purchasePrimeProduct(uint _id) onlyPrimeMember public payable{\r\n        Product memory _product = products[_id];\r\n        address payable _seller= products[_id].owner; \r\n\r\n        require(_product.thirdPartyCheck == true);\r\n        //Verify the product id:\r\n        require(_product.id>=0 && _product.id<=productID);\r\n        require(msg.value>=_product.price,\" Value is less than the product price\");\r\n        require(_seller!=msg.sender);\r\n\r\n         gem.transferFrom(products[_id].owner, msg.sender, products[_id].price);\r\n        // gem.transferFrom(_seller, msg.sender, msg.value);\r\n        // _product.owner.transfer(msg.value);\r\n\r\n        // Buy product: Transfer the ownership(the person who will call this function)\r\n        products[_id].owner=payable(msg.sender);\r\n        // _product.price = msg.value;\r\n        // Trigger an event\r\n        emit productPurchased(_id, _product.price,_product.name,_product.description, payable(msg.sender),true);\r\n    }\r\n\r\n \r\n    function purchaseProduct(uint _id) onlyUser public payable{\r\n\r\n        address payable _seller= products[_id].owner;\r\n\r\n        //Verify the product id:\r\n\r\n        // require(products[_id].id>=0 && products[_id].id<=productID);\r\n\r\n        //require if the ether is enough to transfer\r\n\r\n        // require(products[_id].price>=products[_id].price,\" Value is less than the product price\");\r\n\r\n        require(_seller!=msg.sender);\r\n\r\n        gem.transferFrom(msg.sender,products[_id].owner, products[_id].price);\r\n        // gem.transfer(products[_id].owner,msg.sender,msg.value);\r\n        // products[_id].owner.transfer(msg.value);\r\n        // Buy product: Transfer the ownership(the person who will call this function)\r\n\r\n        products[_id].owner=payable(msg.sender);\r\n\r\n        // Trigger an event\r\n\r\n        emit productPurchased(_id, products[_id].price,products[_id].name,products[_id].description, products[_id].owner,false);\r\n\r\n    }\r\n\r\n    function deleteProduct(uint _id) onlyOwner(_id) public{\r\n        //Delete Product using the id\r\n        delete products[_id];\r\n\r\n    }\r\n\r\n\r\n}\r\n\r\n\r\n\r\n\r\n// pragma solidity ^0.8.0;\r\n\r\n// // import 'https://github.com/OpenZeppelin/openzeppelin-contracts/blob/master/contracts/token/ERC20/ERC20.sol';\r\n// import \"./gems.sol\";\r\n\r\n\r\n// contract RareGems{\r\n\r\n//         Gems gem;\r\n//         address token;\r\n//         address marketPlaceOwner;\r\n//         uint private productID=0;\r\n//         mapping(uint=>Product) public products;\r\n//         mapping (address=>uint) public user; \r\n\r\n//         //Product Structure\r\n//         struct Product{\r\n//             uint id;\r\n//             uint price;\r\n//             string name;\r\n//             string description;\r\n//             address payable owner;\r\n//             bool thirdPartyCheck;\r\n//         }\r\n//         //event to be called on creation of product in the blockchain\r\n//         event productCreated(\r\n//             uint id,\r\n//             uint price,\r\n//             string name,    \r\n//             string description,\r\n//             address payable owner,\r\n//             bool thirdPartyCheck\r\n//         );\r\n//         //event to be called on purchase of product in the blockchain\r\n//         event productPurchased(\r\n//             uint id,\r\n//             uint price,\r\n//             string name,\r\n//             string description,\r\n//             address payable owner,\r\n//             bool thirdPartyCheck\r\n//         );\r\n\r\n//         // uint decimal = 10**18;\r\n\r\n//         // modifiers\r\n//         modifier onlyMarketPlaceOwner{ \r\n//             require(msg.sender==marketPlaceOwner,\"Only Market Place Owner can perform this operation\");\r\n//             _;\r\n//          }\r\n//          modifier onlyUser{ \r\n//             require(user[msg.sender]==1||user[msg.sender]==2,\"Please register\");\r\n//             _;\r\n//         }\r\n\r\n//         modifier onlyOwner(uint id){\r\n//             require(msg.sender == products[id].owner,\"Only owner of the product can delete the product\");\r\n//             _;\r\n//         }\r\n\r\n//         modifier onlyPrimeMember{\r\n//             require(user[msg.sender]==2,\"Please become a prime member\");\r\n//             _;\r\n//         }\r\n    \r\n//     // constructor function\r\n//     // constructor () ERC20('Rare Gems','GEM') { \r\n//     // marketPlaceOwner=msg.sender;\r\n//     // user[msg.sender]=1; // automatically registered  \r\n//     // _mint(msg.sender,10000 * 10**18);\r\n//     // }\r\n//     constructor (address _token) { \r\n//     marketPlaceOwner=msg.sender;\r\n//     user[msg.sender]=1; \r\n//     gem = Gems(_token); \r\n//     // gem.mint(msg.sender,10000);\r\n//     }\r\n\r\n\r\n//     // function burnToken(uint amount) public onlyUser{\r\n//     //     gem.burn(msg.sender,amount);\r\n//     // }\r\n\r\n//     function viewBalance() public view returns(uint256) {\r\n//         return gem.showBalance(msg.sender);\r\n//     }\r\n\r\n\r\n//     function sendToUser(address customer,uint amount) public{ \r\n//         gem.sendToken(msg.sender,customer,amount);\r\n        \r\n//     }\r\n\r\n//     // function exchangeToke(address receiver,uint amount) public onlyUser{\r\n//     //     gem.sendToken(msg.sender,receiver,amount*decimal);\r\n//     // }\r\n\r\n//     function viewProducts(uint id) public view onlyUser returns(uint,uint,string memory,string memory,address,bool){\r\n//         return(products[id].id,products[id].price,products[id].name,products[id].description,products[id].owner,products[id].thirdPartyCheck);\r\n//     }\r\n\r\n//     function register (bool isPrimeUser) public payable {\r\n//         address member =msg.sender;\r\n//         if(isPrimeUser){\r\n//             user[member]=2;\r\n//         }\r\n//         else\r\n//         {\r\n//             user[member]=1;\r\n//         }\r\n//     }\r\n        \r\n//    function unregister (address payable member_unreg) onlyMarketPlaceOwner public {\r\n\r\n//         user[member_unreg]=0;  \r\n\r\n//     }\r\n    \r\n\r\n//     function createPrimeProduct(string memory _name, string memory _description,  uint _price) onlyPrimeMember public {\r\n\r\n//         require(bytes(_name).length > 0);\r\n//         require(bytes(_description).length > 0);\r\n//         require(_price>(5));\r\n//         //Create a product\r\n//         productID ++;\r\n//         products[productID]= Product(productID, _price,_name,_description, payable(msg.sender),true);\r\n        \r\n//         // Trigger an event\r\n//         emit productCreated(productID, _price,_name,_description, payable(msg.sender),true);\r\n        \r\n//     }\r\n\r\n//     //contract to create a Item and add to blockchain, if any user wants to buy can see it and buy it.\r\n//     function createProduct(string memory _name, string memory _description,  uint _price) onlyUser public {\r\n//         require(bytes(_name).length > 0);\r\n//         require(bytes(_description).length > 0);\r\n//         require(_price>0);\r\n//         require(_price<=(5));\r\n        \r\n//         //Create a product\r\n//         productID ++;\r\n//         products[productID]= Product(productID, _price,_name,_description, payable(msg.sender),false);\r\n        \r\n//         // Trigger an event\r\n//         emit productCreated(productID, _price,_name,_description, payable(msg.sender),false);\r\n        \r\n//     }\r\n\r\n\r\n//     function purchasePrimeProduct(uint _id) onlyPrimeMember public payable{\r\n//         uint amount = msg.value;\r\n//         address payable _seller= products[_id].owner;\r\n\r\n//         require(products[_id].thirdPartyCheck == true);\r\n//         //Verify the product id:\r\n//         require(products[_id].id>=0 && products[_id].id<=productID);\r\n//         require(amount>=products[_id].price,\" Value is less than the product price\");\r\n//         require(_seller!=msg.sender);\r\n\r\n//         gem.transfer(products[_id].owner,msg.sender,amount);\r\n\r\n//         // Buy product: Transfer the ownership(the person who will call this function)\r\n//         products[_id].owner=payable(msg.sender);\r\n//         products[_id].price = msg.value;\r\n//         // Trigger an event\r\n//         emit productPurchased(_id, products[_id].price,products[_id].name,products[_id].description, products[_id].owner,true);\r\n//     }\r\n\r\n \r\n//     function purchaseProduct(uint _id) onlyUser public payable{\r\n\r\n//         uint amount = msg.value;\r\n\r\n//         address payable _seller= products[_id].owner;\r\n\r\n//         //Verify the product id:\r\n\r\n//         require(products[_id].id>=0 && products[_id].id<=productID);\r\n\r\n//         //require if the ether is enough to transfer\r\n\r\n//         require(amount>=products[_id].price,\" Value is less than the product price\");\r\n\r\n//         require(_seller!=msg.sender);\r\n\r\n//         gem.transfer(products[_id].owner,msg.sender,amount);\r\n//         // Buy product: Transfer the ownership(the person who will call this function)\r\n\r\n//         products[_id].price = amount;\r\n//         products[_id].owner=payable(msg.sender);\r\n\r\n//         // Trigger an event\r\n\r\n//         emit productPurchased(_id, products[_id].price,products[_id].name,products[_id].description, products[_id].owner,false);\r\n\r\n//     }\r\n\r\n//     function deleteProduct(uint _id) onlyOwner(_id) public{\r\n//         //Delete Product using the id\r\n//         delete products[_id];\r\n\r\n//     }\r\n\r\n// }",
  "sourcePath": "D:\\Spring2022\\BlockChain\\Project\\Project_3\\raregems-contrcat\\contracts\\RareGems.sol",
  "compiler": {
    "name": "solc",
    "version": "0.8.12+commit.f00d7308.Emscripten.clang"
  },
  "schemaVersion": "3.4.6",
  "updatedAt": "2022-05-08T17:09:11.784Z",
  "networkType": "ethereum",
  "devdoc": {
    "kind": "dev",
    "methods": {},
    "version": 1
  },
  "userdoc": {
    "kind": "user",
    "methods": {},
    "version": 1
  }
}